:020000040800F2
:10000000C009002001010008892F00089926000876
:10001000B92A000851100008014D00080000000036
:10002000000000000000000000000000253B000868
:10003000591B000800000000B533000855430008B4
:100040001B0100081B0100081B0100081B01000820
:100050001B0100081B0100081B0100081B01000810
:100060001B0100081B0100081B0100081B01000800
:100070001B0100081B010008C11600081B01000835
:100080001B0100081B0100081B0100081B010008E0
:10009000F94C00081B0100081B0100081B010008A7
:1000A0001B010008294400081B0100081B0100086F
:1000B0001B0100081B0100081B0100081B010008B0
:1000C0001B0100081B0100081B0100081B010008A0
:1000D0001B010008DD4900081B0100081B01000886
:1000E0001B0100081B0100081B010008DFF80CD0F1
:1000F00000F0FEFB0048004739570008C009002007
:100100000648804706480047FEE7FEE7FEE7FEE7B1
:10011000FEE7FEE7FEE7FEE7FEE7FEE765430008D1
:10012000ED00000840EA01039B0703D009E008C97D
:10013000121F08C0042AFAD203E011F8013B00F8AC
:10014000013B521EF9D27047F0B480EA0102D40F8D
:100150004200B2EB410F02D20246084611464A0065
:1001600042D0C30DDDB2C1F3C752AD1A202D35DA2E
:10017000C1F3160141F4000204B15242C5F1200658
:1001800002FA06F12A411044B3EBD05F23D0C4B188
:10019000012DA0EBC35009DCF0BC4FF0004202EA95
:1001A000C352DBB200F5000000F090BA400000F14D
:1001B000807000EBC350A0F1807040EAD17049001C
:1001C00009E0490841EAC071A0EBC35000F5000006
:1001D000400800EBC350F0BC00F06FBA614201224E
:1001E00002EB4101001BF6E7F0BC704781F00041D3
:1001F000AAE780F00040A7E780EA010210B502F00C
:100200000043400022D04A001FD0010E01EB1261D2
:10021000C0F35600C2F3560240F4000042F400025C
:10022000A0FB022000047F39140400D0401C50EAD7
:10023000124001D44000491EC2B20C0604EBD0109B
:10024000401C4008802A02D003E0002010BD20F0AE
:100250000100002900DA0020184310BD30B480EA04
:10026000010202F0004530F0004221F0004013D0BE
:1002700090B1C30DD40DC2F31601C0F31600E41AF9
:1002800041F4000140F400027D34914201D3641C2A
:1002900000E04900002C02DA30BC002070474FF427
:1002A00000000023914201D3891A034340084FEA1A
:1002B0004101F7D151B1914202D14FF0004105E027
:1002C00002D24FF0010101E06FF0010103EBC450D5
:1002D000284430BC00F0F1B92DE9FE4F804681EA98
:1002E0000300C00F0C46009021F0004123F00045B0
:1002F000B8EB0200A94105D24046214690461C4673
:100300000B46024623F00040104347D0270DC7F3A9
:100310000A00C3F30A510290401A019040286BDA98
:10032000C3F3130040F4801B0098924620B10023D1
:10033000D2EB030A63EB0B0B01985946C0F1400264
:10034000504600F089F906460D4650465946019A36
:1003500000F0A1F910EB08006141002487EA115276
:1003600084EAE7731A4340D0009A62B3019A012AE3
:100370004FEA075215DC001B61EB02014FF000420F
:1003800002EA0752CDE90042001C41F580113246D5
:100390002B4600F0D8F903B0BDE8F08F4046214667
:1003A000F9E7001B61EB0201001C41F58013001806
:1003B0005B412018A2F5001747EB030140EAD57016
:1003C000B6196D4111E06D084FEA360645EAC07571
:1003D0004FEA0752001B61EB0201001C41F580113E
:1003E00049084FEA30000019514132462B4603B00C
:1003F000BDE8F04F00F098B90098012240000023BA
:10040000D0EB020263EBE073009821464FEAE07400
:10041000B8EB000061EB0401E9E783F000435BE720
:1004200081F0004158E72DE9FE4F81EA030404F012
:10043000004421F0004100944FF0000B23F00043F2
:1004400050EA01045ED052EA03045BD0C3F30A54BD
:10045000C1F30A552C44A4F2F3340194A0FB0254D6
:10046000C1F3130141F48011C3F3130343F4801368
:1004700001FB024400FB034E840A970A44EA8154BC
:1004800047EA8357A4FB076802958D0A05FB078599
:100490004FEA932C04FB0C542705029D4FEA0658A3
:1004A00047EA1637B5EB08056EEB070C870E920E80
:1004B00047EA811742EA8312A7FB0201B6EB0B0160
:1004C00064EB00042B0D43EA0C335E1844EB1C5024
:1004D000DA465146E7FB0201C5F313044FEA0B333A
:1004E00043EA14534FEA0432019C43EA0603A4F1A1
:1004F0000C040294009CCDE900B400F024F903B090
:10050000BDE8F08F00200146F9E7C10F80EAE070F6
:100510000844CA079623002100F0D8B89623002289
:10052000114600F0D3B80EB5C10F80EAE070084460
:10053000CA07002140F233438DE80E000A460B46FD
:1005400000F001F903B000BD0EB540F23341029155
:100550000021CDE900110A460B4600F0F4F803B083
:1005600000BD00F0004220F00040C10DC0F31600B5
:1005700040F400007F2901DA00207047962903DC4F
:10058000C1F19601C84001E096398840002AF4D0B4
:100590004042704770B5C1F30A5201F00045002493
:1005A000C1F3130140F2FF3341F480119A4201DAA2
:1005B000002070BD40F233439A42A2F2334203DC82
:1005C000524200F058F800E090402C43F1D04042F5
:1005D00070BD00F0004230F000400AD0C10D01F5BE
:1005E0006071C0F3160042EA0151C208400711438E
:1005F000704700200146704701F0004330B421F0FD
:10060000004150EA010206D00A0DA2F56072C1F362
:100610001301002A02DC30BC00207047440F44EA7A
:10062000C104C100E01830BC00EBC25000F045B876
:10063000002801DBC0F10040002901DBC1F10041CD
:1006400081427047002801DBC0F10040002901DB36
:10065000C1F1004188427047202A04DB203A00FAA9
:1006600002F1002070479140C2F1200320FA03F309
:10067000194390407047202A04DB203A21FA02F007
:100680000021704721FA02F3D040C2F120029140CC
:10069000084319467047202A06DBCB17203A41FA57
:1006A00002F043EAE07306E041FA02F3D040C2F1FF
:1006B000200291400843194670470029A8BF70479F
:1006C000401C490008BF20F00100704710B4B0FA88
:1006D00080FC00FA0CF050EA010404BF10BC704723
:1006E00049B1CCF1200421FA04F411FA0CF118BF3D
:1006F000012121430843A3EB0C01CB1D4FEA00610C
:100700004FEA102042BF002010BC704700EBC350DE
:1007100010440029A4BF10BC7047401C490008BF0A
:1007200020F0010010BC704710B5141E73F10004D6
:1007300008DA401C41F1000192185B411A4301D1D3
:1007400020F0010010BD2DE9F04D92469B4611B1FD
:10075000B1FA81F202E0B0FA80F220329046FFF75F
:100760007BFF04460F4640EA0A0041EA0B0153466C
:100770005A46084313D0114653EA010019D0C8F174
:1007800040025046FFF777FF05460E465046594651
:100790004246FFF761FF084305D0012004E02046F0
:1007A0003946BDE8F08D0020054346EAE0762C434B
:1007B00037430A986305E40AA0EB08000022FD0A0B
:1007C00044EA47540A3002D500200146E9E7010512
:1007D00010196941DDE9084500196941BDE8F04D8E
:1007E000A2E72DE9F04D81EA030404F0004B21F06B
:1007F000004514464FF0000A23F0004150EA05027C
:1008000020D054EA01021DD0C5F30A570246C5F3B1
:100810001303C1F31300C1F30A5640F4801543F4E7
:100820008013A7EB0608101BD64608F2FD3873EBC1
:10083000050002D308F1010801E092185B41B8F10C
:10084000000F03DA00200146BDE8F08D00204FF4D0
:100850008011064684460EE0171B73EB050705D38F
:10086000121B63EB050306434CEA010C49084FEAEF
:10087000300092185B4150EA0107EDD152EA0300C3
:1008800012D082EA040083EA0501084305D0101B58
:10089000AB4106D20122002306E000224FF00043C4
:1008A00002E06FF0010253101AEB06004CEB085106
:1008B00010EB0A0041EB0B01BDE8F04DFFF734BF30
:1008C00070B521F0004303430CD0C1F30A55002456
:1008D000D5EB040564EB0403D617AD1AB34102DB74
:1008E0000020014670BD201841EB025170BD000090
:1008F000064C074D06E0E06840F0010394E807006D
:1009000098471034AC42F6D3FFF7F4FBB85B00080D
:10091000D85B00082DE9F04D00231A461B1A8A41C6
:1009200003DB00200146BDE8F08DC1F30A52C1F39C
:10093000130141F480154FF0000BD10702D10018CC
:100940006D41521E0027044640F2FF11384601EB6C
:10095000620A3E468046024600204FF48011FFF7AF
:100960008AFEC2197141BB1846EB0100B4EB030CBF
:1009700075EB000C04D3E41A65EB000517460E4630
:10098000241908F101006D4180463428E3DDF9198E
:1009900046EB0600091BA84103D24FF0FF32134675
:1009A00001E0002213461BEB070046EB0A51BDE8AD
:1009B000F04DFFF7B9BE70B58C1810F8015B15F05B
:1009C000070301D110F8013B2A1106D110F8012BC1
:1009D00003E010F8016B01F8016B5B1EF9D12B07E6
:1009E00005D40023521E0DD401F8013BFAE710F89C
:1009F000013BCB1A921C03E013F8015B01F8015B89
:100A0000521EF9D5A142D8D3002070BD10B504F014
:100A1000B1F801F05FFF04F017FFC82004F038FEC2
:100A200002F070FA02F09AFB03F020FD03F082FD61
:100A300003F0C8FC10BD000010B5044694F9020094
:100A400011281FD008DC012839D0022838D003280B
:100A500053D0102852D108E0122820D013282BD0D0
:100A600014282AD0152849D128E02648007820F0FB
:100A70000100401C234908701222211D2248FFF763
:100A800051FB3CE01222211D2048FFF74BFB1D4883
:100A9000007820F00200801C1A4908702FE0122212
:100AA000211D1B48FFF73EFB1648007820F004008C
:100AB000001D1449087022E021E020E01FE01EE044
:100AC0002079212813D004DC012807D0022811D175
:100AD0000CE0A0280CD0A1280CD10AE0094800782D
:100AE00020F0400040300749087004E003E002E0D5
:100AF00001E000E000BF00BF01E000E000BF00BF78
:100B000010BD0000C4000020C8040020DA0400204A
:100B1000EC0400202DE9F05F82460226AE4C00274F
:100B20004FF000084FF00009BAF1100F1ED008DC9A
:100B3000BAF1080F7ED2DFE80AF07DE2D3A87DFD8E
:100B400094E1BAF1140F1FD009DCBAF1110F13D0E0
:100B5000BAF1120F16D0BAF1130F6BD113E0BAF13C
:100B6000150F12D0BAF1EF0FF7D1F8E09B4FDFF875
:100B70007082DFF8709209E09B4FDFF87082DFF837
:100B8000709203E002E000BF00BF00BFEFB1386920
:100B90009849FFF731FB8346FFF7E3FC00B28E492B
:100BA000888078699349FFF727FB8346FFF7D9FCD4
:100BB00000B28949C880B8698E49FFF71DFB83469A
:100BC000FFF7CFFC00B284490881B8F1000F20D0B4
:100BD000D8F810008749FFF70FFB8346FFF7C1FCE9
:100BE00000B27D494881D8F814008249FFF704FB20
:100BF0008346FFF7B6FC00B277498881D8F8180021
:100C00007C49FFF7F9FA8346FFF7ABFC00B2724963
:100C1000C881B9F1000F22D0D9F810007549FFF74B
:100C2000EBFA8346FFF79DFC00B26B490882D9F8C6
:100C3000140000E09AE06F49FFF7DEFA8346FFF701
:100C400090FC00B264494882D9F818006949FFF75E
:100C5000D3FA8346FFF785FC00B25F4988821226EB
:100C600085E0654800885C49888063484088C88082
:100C70006148808808816048C08848810020888158
:100C8000C88108824882102671E05C48808800B2E2
:100C9000514988805948C08800B2C88057480088A8
:100CA00000B208815548408800B248815348008905
:100CB00000B288815148408900B2C8814F4880897C
:100CC00000B208824D48C08900B248824B488089F2
:100CD00000B288824948C08900B2C882142646E022
:100CE0003D49474802684A6042688A608068C86037
:100CF0000020088248828882122638E037E0414985
:100D000008684149FFF778FA8346FFF72AFC40421A
:100D100000B2314988803B4948683B49FFF76CFA8B
:100D20008346FFF71EFC00B22B49C880354988680E
:100D3000354900E012E0FFF75FFA8346FFF711FC48
:100D4000404200B2244908810020488188812F4810
:100D50000078000200B2C8810C2608E007E02C48A9
:100D6000B0F900001C498880022600E000BF00BFE7
:100D70004AF6AA201849088046EA0A2000B24880AC
:100D80005421301D215402251AE06057691C615618
:100D900048406055681C205661574840691C6054A3
:100DA0006057615648406055615D681C205C014495
:100DB000301D205C084441B2301D2154A81CC5B22E
:100DC000301D8542E1DB701DC1B2204603F09AFF61
:100DD00003F0AEFFBDE8F09FFE04002038020020C3
:100DE0006C020020A002002008030020D402002092
:100DF0003C03002000007A441E000020280200204E
:100E0000100200201C0200200000C8421C0000202C
:100E1000C20000202DE9F8438248007820B1012863
:100E200006D002287ED11CE001207E490870F6E041
:100E30000220FFF76FFE1E2004F02AFC0120FFF7BE
:100E400069FE1E2004F024FC0320FFF763FE1E2031
:100E500004F01EFC7448007810B10220714908703B
:100E6000DDE07148007810B901206E4908706E48C5
:100E70000078C0F3801088B11020FFF74BFE0F20E0
:100E800004F006FC1120FFF745FE0F2004F000FCE3
:100E90006548007820F04000634908706248007897
:100EA00000F03F0000287DD00025002600275E4886
:100EB000007800F0010050B15C4D5D4E5D4F5E4C1E
:100EC0005948007820F001005749087016E056484C
:100ED0000078C0F3400050B1584D594E594F5A4C0C
:100EE0005148007820F002004F49087006E00120C8
:100EF0004C49087000204C49087090E075B3207888
:100F00008DF8010060788DF80000BDF80000FFF753
:100F100005FB80464D49FFF7A1F92861A0788DF8BF
:100F2000010000E07AE0E0788DF80000BDF80000F4
:100F3000FFF7F4FA80464549FFF790F96861207998
:100F40008DF8010060798DF80000BDF80000FFF712
:100F5000E5FA80463D49FFF781F9A86176B3A079AB
:100F60008DF80100E0798DF80000BDF80000FFF772
:100F7000D5FA80463549FFF771F93061207A8DF84E
:100F80000100607A8DF80000BDF80000FFF7C6FA96
:100F900080462E49FFF762F97061A07A8DF8010052
:100FA000E07A00E039E08DF80000BDF80000FFF7BE
:100FB000B5FA80462549FFF751F9B06167B3207B48
:100FC0008DF80100607B8DF80000BDF80000FFF790
:100FD000A5FA80461D49FFF741F93861A07B8DF8DD
:100FE0000100E07B8DF80000BDF80000FFF796FAE5
:100FF00080461649FFF732F97861207C8DF80100B0
:10100000607C8DF80000BDF80000FFF787FA80468D
:101010000E49FFF723F9B86100BF00E000BF00BF31
:10102000BDE8F883C5000020C4000020380200207D
:101030006C020020A0020020C80400200803002049
:10104000D40200203C030020DA04002000007A448F
:1010500000BFFEE70146CAB20B1243EA0220704706
:1010600010B5002473E147F6FF70BF490860BF4820
:10107000008800F00F00BE4908700846007800287C
:101080007ED1B9484438006800F44050B94908801E
:10109000B5484438006800F03000B7490880B249CC
:1010A000443909684BF68F7201EA020080F400505F
:1010B000AD4944390860096848F6BF7201EA020088
:1010C00080F02000A84944390860A848008800F052
:1010D0001000002838D10846006848F60F71084013
:1010E000A1494439086001F09FFC9F4944390968CF
:1010F0004BF68F7201EA02009E49098801F4805183
:1011000009B180F480509B49098801F4005109B16C
:1011100080F40050944944390860096848F6BF7269
:1011200001EA02009449097801F0100109B180F048
:1011300010009149097801F0200109B180F02000E8
:1011400089494439086010BD87484438006884B232
:1011500004F08000D8B384484438006848F60F7122
:10116000084081494439086001F05EFC7E494439F9
:1011700009684BF68F7201EA02007E49098800E097
:10118000A6E001F4805109B180F4805079490988C2
:1011900001F4005109B180F40050734944390860EA
:1011A000096848F6BF7201EA02007349097801F044
:1011B000100109B180F010006F49097801F0200199
:1011C00009B180F02000684944390860BBE7FFE7B7
:1011D00004F40060D8B3644844380068C0F30E00DB
:1011E00048F68F71084060494439086002F014FEE7
:1011F0005D49443909684BF68F7201EA02005D4986
:10120000098801F4805109B180F480505949098856
:1012100001F4005109B180F4005053494439086089
:10122000096848F6BF7201EA02005349097801F0E3
:10123000100109B180F010004F49097801F0200138
:1012400009B180F020004849443908607BE7FFE796
:1012500004F4004000287AD0434844380068C0F3C2
:101260000E0048F68F7108403F494439086002F08B
:1012700065F83D49443909684BF68F7201EA02006E
:101280003C49098801F4805109B180F48050394902
:10129000098801F4005109B180F400503249443901
:1012A0000860096848F6BF7201EA0200324909780D
:1012B00001F0100109B180F010002F49097801F008
:1012C000200109B180F020002749443908603AE73D
:1012D00027480078294901EB8000D0F8000C84B23F
:1012E00004F40040C0B12248007801EB8000D0F83F
:1012F000000CC0F30E0048F68F7108401C490978B5
:101300001E4A02EB8101C1F8000C19490978491EF7
:101310001B4A52F82100804704F08000B8B11448FD
:101320000078164901EB8000D0F8000C48F60F71E8
:1013300008400F490978114A02EB8101C1F8000CFD
:101340000B490978491E0F4A52F821008047064888
:10135000006880B20549088000F4004000287FF44E
:1013600082AE00BFEFE60000445C00402C0100208C
:10137000F80000200C0100200E0100200050004069
:101380004C0100203001002070B506460C46154681
:101390002946204604F022FAA06A306029463046E9
:1013A00004F01CFA70BD00000B4A02EB8001D1F87A
:1013B000001C01F4804169B102EB8001D1F8001CEE
:1013C00048F68F72114041F48041034B03EB8002D9
:1013D000C2F8001C70470000005000400B4A02EBAE
:1013E0008001D1F8001C01F0400169B102EB8001DD
:1013F000D1F8001C48F68F72114041F04001034BB8
:1014000003EB8002C2F8001C70470000005000404F
:10141000064A02EB8001D1F8001C48F68F621140A9
:10142000024B03EB8002C2F8001C704700500040E2
:1014300070B504460025062C18D1184800680078BD
:1014400000F07F00012811D114480068407968B984
:10145000124800688078222801D1114D10E00F4811
:101460000068807821280BD10E4D09E00B480068F8
:10147000007800F07F00212802D1032C00D10A4D12
:101480000DB9022070BD0548006885610021034840
:10149000006841820020A8470020F3E7FC000020FC
:1014A00005150008D5140008E914000810B5044615
:1014B0000249204602F0CCFD10BD0000CC01002006
:1014C00010B504460249204602F0C2FD10BD0000DE
:1014D000C401002010B504460249204602F0B8FDC0
:1014E00010BD0000DC010020014629B90120034A9B
:1014F00012681082002070470148FCE7FC000020C1
:101500006801002010B504460249204602F0A0FD03
:1015100010BD0000D401002070B5054606480068E3
:10152000C478042C01DD002070BD044800EBC40128
:10153000284602F08DFDF7E7FC000020E4010020C2
:101540000246002901DD02207047002A01DD022049
:10155000FAE70020F8E7000000B5024606480068F8
:10156000007800F07F00212804D10B2A02D100F07E
:1015700077F800BD0220FCE7FC00002010B5002039
:101580002A490968887229490968C8722848C079B7
:10159000264909684872002002F0C6FA4FF400712B
:1015A000002002F0A9FB1021002002F073FB18219B
:1015B000002002F0E7FA5821002002F04DFB002045
:1015C000FFF726FF1B4890F82C10002002F0ECFAE1
:1015D000002002F02BFB4FF4C061012002F08CFBD5
:1015E0009821012002F0CEFA4021012002F0DCFA1D
:1015F0004FF44051012002F0FDFA4FF4C061022087
:1016000002F07AFB4FF48C71022002F025FB40219E
:10161000022002F031FB2021022002F03BFB0120DE
:1016200005490860002002F087FA10BDFC00002088
:10163000525A00087001002004020020034800688C
:10164000807A10B10520024908607047FC00002034
:1016500004020020042001490860704704020020B1
:1016600003480068C178034801600020704700000B
:10167000FC000020680100207047704710B500F0A2
:10168000E7FF00200A490968887201F015FF002071
:10169000084908604FF43F40074908800846008821
:1016A0000449091F086000200449086010BD0000BB
:1016B000FC000020445C00400601002004020020E1
:1016C00010B54FF4005000F027F838B14FF48050B7
:1016D00000F008F80021024800F012F810BD0000E8
:1016E0004400024000F0805111B10349086001E05C
:1016F00002494860704700000404024000000240B4
:1017000021B1026842F00102026004E002684FF673
:10171000FE731A400260704701460020002201F06B
:10172000805313B1054B1A6801E0054B1A6802EAB1
:1017300001030BB1012000E00020704700040240CB
:10174000000002402DE9F0472848006800F110052C
:101750002E8826480068077AD6B9042F18D1244865
:10176000007801280FD100212248006880B2801C37
:10177000214A42F8101030202049088000BF002084
:101780001B49087003E0072710201C49088027E048
:10179000AC88A64201D8042000E002200746B442EB
:1017A00000D93446A0B2A96888478046002000F0DE
:1017B0001DFF8146A2B24946404603F0A1FBA1B2FB
:1017C000002002F059FA2888001B288068882044ED
:1017D000688030200949088000020949088000BF5C
:1017E000024909680F72BDE8F0870000FC00002084
:1017F000F6000020505C0040006000400E01002018
:101800000C0100202DE9F0412848006800F1100487
:101810002688A068C0B1BEB1A588B54200D93546BA
:10182000A8B2A168884707462088401B20806088AE
:1018300028446080002000F0C9FE8046AAB24146DC
:10184000384601F0A3FD00BF208850B14FF440504E
:10185000174908800021084602F00EFA3020154989
:1018600008802088A188884204DB03200F4909688A
:10187000087218E02088002804DD05200B4909685B
:10188000087210E0208870B90620084909680872BB
:1018900000210948006880B2801C084A42F81010F4
:1018A000302004490880BDE8F0810000FC000020E1
:1018B0000C0100200E010020505C00400060004040
:1018C0002DE9F84F9B48006845780027BA46062D59
:1018D0001BD198480068007800F07F00002813D1E1
:1018E000944909688878012803D193490968CF6928
:1018F0000AE0022803D1904909680F6A04E003282E
:1019000002D18D4909684F6A94E0002D64D189485D
:101910000068408800285FD186480068C088022897
:101920005AD1844800680079002855D18148006860
:10193000007800F07F0028B97E480068808808B9E8
:101940007E4F77E07B480068007800F07F00012838
:1019500010D1784909684879774909688A6900216E
:101960009047002866D173480068807A002861D0CB
:10197000724F5FE06F480068007800F07F00022837
:1019800058D16C480068407900F00F06694800683B
:10199000407900F0700967480068407900F08000E5
:1019A00038B1674901EB8600D0F8000C00F0300830
:1019B00006E0634901EB8600D0F8000C00F44058C3
:1019C00060480078B04235D9B9F1000F32D1B8F192
:1019D000000F2FD0594F2DE0082D07D15548006832
:1019E000007800F07F0028BB574F23E00A2D21D15B
:1019F00050480068007800F07F0001281AD14D4857
:101A00000068807AB0B14B480068408890B9494876
:101A10000068007970B947480068C088012809D17A
:101A2000444909684879444909688A69002190470E
:101A300000B9464F57B13F480068A0F812A03D4892
:101A4000006887610020B84700240FE0394A126817
:101A50005078394A1268116988470446032C05D129
:101A60000920344909680872BDE8F88F31480068D8
:101A7000008A4FF6FF71884204D109202D49096878
:101A80000872F1E7022C03D02A480068008A20B9C6
:101A90000820284909680872E6E7264800680078A7
:101AA00000F08000E0B323480068C088009021481F
:101AB0000068008A0099884204D91E490098096884
:101AC000088223E01B480068008A1A490968C9880F
:101AD00088421BDA17480068008A1749096891F89C
:101AE0002C10884203DA0020194908700EE01148D2
:101AF0000068008A1049096891F82C1090FBF1F2F7
:101B000001FB120010B90120114908700A48006851
:101B100090F82C10074800688182FFF713FE07E059
:101B2000FFE7032003490968087200030949088098
:101B300000BF99E7FC00002000010020A140000840
:101B4000005000406C01002025400008754000084E
:101B5000F60000200C0100207047000010B5402264
:101B60009821054801F012FC0120044908704FF447
:101B7000405102F03FF810BD700300203A000020F1
:101B8000002004E00021034A1154411CC8B240283F
:101B9000F8DB70478005002003200149086070478A
:101BA00004020020094A0A4B1A6009E0084A126838
:101BB00012880280801C064A1268921C044B1A602C
:101BC0000A00A1F10103D9B2F0D17047007C0008EE
:101BD0004400002070B5044653480078012806D020
:101BE0000B280BD01F2817D0FF287DD187E04F4846
:101BF000007810B10B204C4908708CE006214C484D
:101C000003F0D6FD00204B49486208604A498860CD
:101C10001F20454908707EE0474948684749FEF75C
:101C200007FD11D3444948684549FEF70BFD0BD326
:101C3000414908684149FEF7FBFC05D33E49086865
:101C40003F49FEF7FFFC07D23E488088B0F5966F0B
:101C500002DD0020354908703B49B1F90600FEF766
:101C600054FC0546394801682846FEF7C5FA38494C
:101C700048623549B1F90800FEF747FC054633488C
:101C800001682846FEF7B8FA324948622E49B1F990
:101C90000A00FEF73AFC05462C4801682846FEF784
:101CA000ABFA2D494862244840682C4948622248D2
:101CB00000682B494862204880681E4948622146D6
:101CC000274803F08BFD2648806A21490860214699
:101CD0001F4803F083FD2146204803F07FFD1F4885
:101CE000806A1C49086000E011E02146194803F0B1
:101CF00075FD22460F491848FFF746FB0BE0062109
:101D00000B4803F055FD01200749087003E0FF2050
:101D10000549087000BF00BF0448007810B9FF20D3
:101D20000149087070BD0000C00000201C000020A8
:101D3000A40000203C0300201C020020000048C238
:101D4000000048422802002010020020345A0008F7
:101D5000380200206C020020A0020020D4020020E3
:101D6000080300202DE9F04102460025002600204E
:101D700000230024002791F803C00CF00F0591F810
:101D800003C00CF0100CBCF1000F03D091F802C09E
:101D90004CEA050591F800C0BCF1000F31D0146881
:101DA00000202BE04FF0010C0CFA00F3B1F800C05A
:101DB0000CEA03069E4220D183004FF00F0C0CFA70
:101DC00003F7BC4305FA03FC4CEA040491F803C092
:101DD000BCF1280F06D14FF0010C0CFA00FCC2F840
:101DE00014C00AE091F803C0BCF1480F05D14FF0D0
:101DF000010C0CFA00FCC2F810C0401C0828D1D31A
:101E00001460B1F800C0BCF1FF0F34DD546800204D
:101E10002EE000F1080C4FF0010808FA0CF3B1F8BD
:101E200000C00CEA03069E4221D183004FF00F0C44
:101E30000CFA03F7BC4305FA03FC4CEA040491F8DE
:101E400003C0BCF1280F05D100F1080C08FA0CF80A
:101E5000C2F8148091F803C0BCF1480F07D100F11B
:101E6000080C4FF0010808FA0CF8C2F81080401C6A
:101E70000828CED35460BDE8F0814161704701610C
:101E80007047000007B5A4B04FF07C512698FEF7CC
:101E9000B3F91190FE4880680D90FD4800680C90E1
:101EA0000D99FEF7A9F90F90F948C0680D90F84810
:101EB00040680C900D99FEF79FF90E900F99FEF770
:101EC00095F94FF080411090FEF796F92090F04878
:101ED000C0680D90EE4880680C900D99FEF78CF963
:101EE0000F90EB4840680D90E94800680C900D9900
:101EF000FEF782F90E900F99FEF726F94FF0804118
:101F00001090FEF779F92190E14880680C90E04844
:101F100080680B900C99FEF76FF90E90DC484068D2
:101F20000C90DB4840680B900C99FEF765F90D901A
:101F30000E99FEF709F94FF080410F90FEF75CF91A
:101F40004FF07E511090FEF754F92290D148B0F92D
:101F500004000B90FEF7D9FA0D90CE48B0F90400BA
:101F60000B90FEF7D2FA0C900D99FEF745F90F9001
:101F7000C848B0F902000990FEF7C7FA0B90C548AF
:101F8000B0F902000990FEF7C0FA0A900B99FEF72B
:101F900033F90D90BF48B0F900000990FEF7B5FA8B
:101FA0000B90BC48B0F900000990FEF7AEFA0A9019
:101FB0000B99FEF721F90C900D99FEF7C5F80E90DC
:101FC0000F99FEF7C1F8109001F096FAB249086037
:101FD0002498B0F900000F90FEF797FA1090AE48E1
:101FE00001681098FEF708F91D902498B0F90200D6
:101FF0000F90FEF78AFA1090A74801681098FEF734
:10200000FBF81E902498B0F904000F90FEF77DFABB
:102010001090A14801681098FEF7EEF81F902198E3
:102020000E901F980D900E99FEF7E6F810902298EA
:102030000E901E980D900E99FEF7DEF80F901099F5
:10204000FEF7D4F8179022980E901D980D900E99D7
:10205000FEF7D2F8109020980E901F980D900E99D0
:10206000FEF7CAF80F901099FEF7C0F81890209864
:102070000E901E980D900E99FEF7BEF810902198C4
:102080000E901D980D900E99FEF7B6F80F901099CE
:10209000FEF7ACF8199017980F90804801680F98D8
:1020A000FEF7AAF810907E48006801460F9010983D
:1020B000FEF74AF87A49086018980F907748016847
:1020C0000F98FEF799F810907548406801460F90F8
:1020D0001098FEF739F87249486019980F906F48C8
:1020E00001680F98FEF788F810906D4880680146E7
:1020F0000F901098FEF728F86949886017980146F4
:102100000D9068480068FEF777F80F902498B0F9B2
:1021100006000C90FEF7F9F90D90634801680D98E0
:10212000FEF76AF80E900F99FEF70EF810905C48D3
:10213000006801460F901098FEF706F81A9018985C
:1021400001460D9057480068FEF756F80F90249806
:10215000B0F908000C90FEF7D8F90D9052480168CC
:102160000D98FEF749F80E900F99FDF7EDFF1090CE
:102170004B48406801460F901098FDF7E5FF1B9013
:10218000199801460D9047480068FEF735F80F9002
:102190002498B0F90A000C90FEF7B7F90D90424868
:1021A00001680D98FEF728F80E900F99FDF7CCFF07
:1021B00010903B48806801460F901098FDF7C4FFCF
:1021C0001C901C980D903248C0680C900D99FEF739
:1021D00013F80F901B980B902D4880680A900B996C
:1021E000FEF70AF80D902A48406880F000400B90F6
:1021F0001A9801460A900B98FDF7FEFF0C900D9976
:10220000FDF7F4FF0E900F99FDF7F0FF1090119974
:10221000FDF7F2FF16901C980D901D4880680C90F9
:102220000D99FDF7E9FF0F901B980B901848C068B7
:102230000A900B99FDF7E0FF0D901A980B90144847
:1022400000680A900B99FDF7D7FF0C900D99FDF7E8
:10225000CDFF0E900F99FDF777FF10901199FDF7C4
:10226000CBFF15901C980D90094840680C900D9973
:10227000FDF7C2FF0F901B980B90054800680A906D
:102280000B99FDF7B9FF0D901A980B9000480DE0DF
:10229000DC00002010020020D8000020F000002008
:1022A00058050020EC000020385A0008C0680A9049
:1022B0000B99FDF7A1FF0C900D99FDF745FF0E90CE
:1022C0000F99FDF793FF10901199FDF795FF14906A
:1022D0001C980D90B94800680C900D99FDF78CFF83
:1022E0000F901B980B90B54840680A900B99FDF72A
:1022F00083FF0D90B148806880F000400B901A98E1
:1023000001460A900B98FDF777FF0C900D99FDF7A9
:102310001BFF0E900F99FDF717FF10901199FDF715
:102320006BFF1390A548006810901699FDF70CFFFD
:10233000A24908600846406810901599FDF704FF0F
:102340009E4948600846806810901499FDF7FCFE8D
:102350009A4988600846C06810901399FDF7F4FE0A
:102360009649C8600846C0680D900846C0680C9041
:102370000D99FDF741FF0F90904880680B908F48B2
:1023800080680A900B99FDF737FF0D908B484068E5
:1023900009908A48406808900999FDF72DFF0B9035
:1023A0008648006809908548006808900999FDF7FB
:1023B00023FF0A900B99FDF7C7FE0C900D99FDF7CE
:1023C000C3FE0E900F99FDF7BFFE109001F094F838
:1023D00012907A48006810901299FDF70DFF774926
:1023E00008600846406810901299FDF705FF734990
:1023F00048600846806810901299FDF7FDFE6F490D
:1024000088600846C06810901299FDF7F5FE6B4988
:10241000C8602498B0F90A000E90FEF776F80F9085
:10242000674801680F98FDF7E7FE10904FF07E5166
:102430001098FEF707F904D362491098FEF7F8F8F0
:102440000DD226991098FDF7D7FE0F902598806839
:1024500001460E900F98FDF777FE259988605A483F
:102460000068FEF7B6F8CDE90C0154484068014613
:1024700003904FF08040FDF7BFFE04904F48C068C6
:10248000014603900498FDF7B7FE06904B4800689C
:10249000014603904FF08040FDF7AEFE04904748A0
:1024A0008068014603900498FDF7A6FE0590069902
:1024B000FDF79CFE0790FEF78CF8CDE9080102F0CD
:1024C000CDFDCDE90A01DDE90C23FDF7ACFFCDE937
:1024D0000E01FEF791F8259948603B480068FEF729
:1024E00078F8CDE90C0135488068014601904FF03D
:1024F0008040FDF781FE02903048806801460190DF
:102500000298FDF779FE04902C484068014600903F
:102510004FF08040FDF770FE01902848406801466A
:1025200000900198FDF768FE4FF07E510290FDF794
:1025300060FE03900499FDF759FE0590FEF749F8F7
:10254000CDE908011D480068014601904FF0804028
:10255000FDF752FE0290194840680146019002982A
:10256000FDF74AFE049015488068014601904FF03F
:102570008040FDF741FE02901048C068014601907E
:102580000298FDF739FE03900499FDF7DDFD0590F3
:10259000FEF71FF8CDE90601DDE9082302F0A6FFEA
:1025A000CDE90A01DDE90C23FDF73DFFCDE90E0180
:1025B000FEF722F82599086027B000BDDC00002056
:1025C000345A0008000080BF2C5A00080146054814
:1025D000006880B200EBC100001D034A32F8100011
:1025E00080B27047505C00400060004001460548E2
:1025F000006880B200EBC100034A32F8100080B2DC
:1026000070470000505C00400060004000BF0E4872
:1026100001684FF0E02082690B4800688142F6D1E2
:102620000A48006800EB4003C3EBC010C2EBC000D7
:10263000064B1B68B0FBF3F001EB4103C3EBC11386
:1026400000EBC300704700001800002014000020B9
:1026500010B50F4B18681B1D19681B1D1A68A8B10F
:102660000C4CA070030A2371030CA371030E237298
:10267000A1720B0A23730B0CA3730B0E2374A274A9
:10268000130A2375130CA375130E237610BD0000D7
:10269000E8F7FF1F1001002000BFFEE700B5402053
:1026A0000D49086000F008F980200B49086000F02F
:1026B00003F940200849091F086000F0FDF800F008
:1026C000FBF800F0F9F800F0F7F840200249086044
:1026D00000F0F2F800BD0000140C014000B54020ED
:1026E0000D49086000F0E8F880200B49091F0860D8
:1026F00000F0E2F840200849091F086000F0DCF80B
:1027000000F0DAF800F0D8F800F0D6F840200249DE
:10271000086000F0D1F800BD140C014000B508229B
:1027200000218020144B18601AE04806010E40205A
:10273000114B1B1D186000F0BFF800F0BDF84020E1
:102740000D4B186000F0B8F800F0B6F800F0B4F8DF
:1027500009480838006800F0800008B141F0010124
:102760001000A2F10103DAB2DFD14020024B1B1DA1
:102770001860084600BD0000100C014000B501467D
:1027800008221DE04020134B186000F095F801F07E
:10279000800020B180200F4B1B1F186002E08020BA
:1027A0000C4B18604806010E00F086F84020094BDB
:1027B0001B1F186000F080F800F07EF800F07CF835
:1027C0001000A2F10103DAB2DCD14020014B186005
:1027D00000BD0000140C014000B5802013490860C2
:1027E0004020086000F068F810480838006808B910
:1027F000012000E0002000F0800008B1012000BDB1
:1028000080200A49091D086000F056F8074808387A
:10281000006800F0800008B10120F0E74020034983
:10282000091D086000F048F80020E8E7100C01409E
:1028300000B540200B49086000F03EF880200949AF
:10284000086000F039F800F037F840200549091F0A
:10285000086000F031F880200249091F086000F08C
:102860002BF800BD140C014000B540201149086050
:1028700000F022F880200F49091F086000F01CF8C2
:1028800040200C49091F086000F016F800F014F809
:1028900000F012F807480C38006800F0800020B102
:1028A000402004490860012000BD40200149086023
:1028B0000020F9E7140C014008B50220009004E064
:1028C0009DF80000401EC0B200909DF80000002856
:1028D000F6D108BD08B50121082000F045FEC02052
:1028E000ADF8000003208DF8020014208DF80300DD
:1028F00069460248FFF736FA08BD0000000C0140A7
:1029000070B504460D460026FFF766FF012800D18A
:1029100070BD2046FFF732FFFFF7A6FF012803D165
:10292000FFF786FF0120F3E72846FFF727FFFFF7B1
:102930009BFFFFF77DFFFFF74FFF611CC8B2FFF75A
:102940001DFFFFF791FF012803D1FFF771FF012061
:10295000DEE7FFF7E3FE0646FFF7C0FEFFF768FF7E
:1029600070B2D5E770B506460C461546FFF734FF42
:10297000012800D170BD3046FFF700FFFFF774FF5C
:10298000012803D1FFF754FF0120F3E72046FFF7AA
:10299000F5FEFFF769FF2846FFF7F0FEFFF764FF3B
:1029A000FFF746FF0020E5E72DE9F04106460F4618
:1029B00015461C46FFF710FF012801D1BDE8F08144
:1029C0003046FFF7DBFEFFF74FFF012803D1FFF78B
:1029D0002FFF0120F2E73846FFF7D0FEFFF744FF54
:1029E000FFF726FFFFF7F8FE711CC8B2FFF7C6FE1F
:1029F000FFF73AFF012803D1FFF71AFF0120DDE7B7
:102A00000CE0FFF78BFE2870012C02D1FFF766FE69
:102A100001E0FFF743FE6D1C601EC4B2002CF0D134
:102A2000FFF706FF0020C9E710B518480068047AD0
:102A3000022C01D0042C05D1FEF784FE1348006857
:102A4000047A1CE0062C19D110480068407805284B
:102A50000ED10E480068007800F07F0040B90B49A5
:102A60000968C87801F068F809490968086A804768
:102A70000849096888688047082400E00824034959
:102A800009680C7200F0F4FC10BD0000FC0000208E
:102A900008010020000100200548817A19B10521B4
:102AA000044A116002E00121024A116070470000EF
:102AB000640500200402002000BFFEE72DE9FC5F52
:102AC000C448007810B9FF20C3490870C248007894
:102AD000012806D0022811D01F2822D0FF287DD13E
:102AE00012E10020BD49C880888048800880B9482C
:102AF000007810B10220B849087000BFB84880883B
:102B000040F24C4188420BDD0020B6490880B649AE
:102B100008800621B54802F04BFE1F20AE49087020
:102B2000FDE0AF488088A0F57A700FFA80FB584628
:102B3000FDF7EBFC0646AE49FDF75EFB0546AD49E9
:102B4000FDF702FB0446FDF70CFD0FFA80FABBF11E
:102B50000A0F4EDAA448008840F2DC51884204DAB9
:102B6000A1480088401CA04908809F480088FDF7C4
:102B7000EBFC4FF03332A04BCDE90001FDF753FCE5
:102B800006460F465046FDF7CEFC804632463B4691
:102B9000FDF743FC0446FDF7FDFC0FFA80FA974869
:102BA000B0F9040042F23411884225DA9348B0F9B2
:102BB000040041F6786188421EDD8B480088401C85
:102BC0008949088008460088B0F5167F14DD4FF06B
:102BD000000A0621854802F0EBFD00E09EE000209F
:102BE0007E49C88088804880088002207A49087021
:102BF00095E000207C490880BAF1000F01DA00203E
:102C000006E0BAF52F7F02DD4FF42F7000E050464A
:102C10007249C880888048800880794A916A794AD8
:102C2000906AFDF791FA07467748816A3846FDF7C2
:102C30008BFA04466949B1F90000FDF766FC0646C7
:102C40002146FDF781FA0546FDF78BFC00B263498A
:102C500008806B4A916A6B4A906AFDF7C7FA07468B
:102C60006948816A3846FDF7C1FA05465B49B1F902
:102C70000200FDF74AFC06462946FDF765FA0446C0
:102C8000FDF76FFC00B2554948805E48806A80F0CD
:102C900000475B48816A3846FDF756FA06465A48AF
:102CA000816A3046FDF7A2FA05464C49B1F90400A5
:102CB000FDF72BFC80462946FDF746FA0446FDF752
:102CC00050FC00B2454988804E48806A80F0004739
:102CD0004B48816A3846FDF789FA06464A48816AB8
:102CE0003046FDF731FA05463C49B1F90600FDF7DB
:102CF0000CFC80462946FDF727FA0446FDF731FC17
:102D000000B23649C8800AE000203449C880888073
:102D10004880088001203049087000E000BF00BFF3
:102D20002E48B0F90000002801DA00200BE02B4803
:102D3000B0F90000B0F57A7F02DD4FF47A7002E05E
:102D40002648B0F900004FF0804188862348B0F94A
:102D50000200002801DA00200BE02048B0F9020050
:102D6000B0F57A7F02DD4FF47A7002E01B48B0F9CB
:102D700002004FF0804108871848B0F9040000288D
:102D800001DA00200BE01548B0F90400B0F57A7FB5
:102D900002DD4FF47A7002E01048B0F904004FF001
:102DA000804188870D48B0F90600002801DA00202C
:102DB0000BE00A48B0F90600B0F57A7F02DD4FF467
:102DC0007A7002E00548B0F9060010490880BDE8B5
:102DD000FC9F00001C000020C10000201E000020FD
:102DE00028020020BC000020BE000020A40000201B
:102DF000CDCC0C3F0000C8423333E33F100200202B
:102E00006C02002038020020A00200204000004098
:102E10002DE9FE4F06236A463B21D020FFF7C4FD73
:102E200006230DF106024321D020FFF7BDFD00244B
:102E300058E0012000EB44001DF800001DF81410BC
:102E400040EA0120294931F81410401A00B22849FB
:102E5000096821F81400032C1BDA2549096831F9A7
:102E60001400FDF752FB054604EB4401214A02EB36
:102E7000C100294602F034FC04EB44011D4A02EB78
:102E8000C1018868FDF76DFB00B21949096821F896
:102E90001400022C24DDE01EC5B2DFF85C8014496A
:102EA000096831F91400FDF730FB82464146FDF711
:102EB000A3F90746114951F825001149FDF79CF97E
:102EC00081463946FDF740F90C4941F82500064690
:102ED000FDF747FB00B20649096821F8140000BF5E
:102EE000601CC4B2062CA4DBBDE8FE8FB004002039
:102EF000580000205C0000209A99193EBC04002074
:102F00009A99593F10B5002400BF80226B21D02030
:102F1000FFF728FDC4B21E2002F0BAFB02221921DD
:102F2000D020FFF71FFD2044C4B203226B21D02024
:102F3000FFF718FD2044C4B203221A21D020FFF766
:102F400011FD2044C4B218221B21D020FFF70AFD36
:102F50002044C4B209221C21D020FFF703FD2044E5
:102F6000C4B2002CD1D17521D020FFF7C9FCC4B266
:102F7000682C01D0012010BD06210248FEF712FE88
:102F80000020F8E7B0040020704770471FB510A17B
:102F900003C9CDE90201052202A9302000F0A4F8FE
:102FA00005226946102000F04DF8002406E01DF8C7
:102FB0000400A52800D003E0601CC4B2052CF6DB99
:102FC00000BF052C02D0012004B010BD0020FBE79B
:102FD000A5A5A5A5A500000008B50121082000F0C1
:102FE000C3FA4FF48850ADF8000010208DF80300AC
:102FF00003208DF8020069461048FEF7B3FE4FF437
:1030000080700E4910310860000108600011ADF8B1
:10301000000048208DF8030003208DF80200694667
:103020000748FEF79FFE00F015FD4FF4807003493E
:10303000143108600001091F086008BD000C014040
:10304000000801402DE9F04107460D4616464FF4B1
:1030500080500C490860384600F032FD804600245C
:1030600005E0FF2000F02CFD2855601CC4B2B442DE
:10307000F7DB4FF480500349091F08604046BDE864
:10308000F0810000140C014070B504464FF48050EC
:1030900007490860204600F013FDFF2000F010FDF6
:1030A00005464FF480500249091F0860284670BD4C
:1030B000140C014070B504460720FFF7E5FF0546F4
:1030C0002946272000F032F805F0400050B12022B8
:1030D00021466120FFF7B6FFFF21E22000F026F82D
:1030E000002070BD0120FCE72DE9F04107460C46A9
:1030F00015464FF480500C490860384600F0E0FC5B
:103100008046002605E014F8010B00F0D9FC701C85
:10311000C6B2AE42F7DB4FF480500349091F086086
:103120004046BDE8F0810000140C014070B5054632
:103130000C464FF4805008490860284600F0C0FC57
:103140000646204600F0BCFC4FF480500249091F9F
:103150000860304670BD0000140C014010B5FFF748
:103160003BFF00BF00F0E0FBFFF710FF0128F9D0A4
:1031700010BD000070B5002100230F22C47804B3F5
:10318000154C246804F4E064C4F5E064210AC1F13C
:103190000403CA40447804FA03F1847814402143BC
:1031A00009010E4C0678A155047804F01F0501248E
:1031B000AC4005786D11AD0005F1E025C5F8004182
:1031C00009E0047804F01F050124AC40044D0678A2
:1031D000761145F8264070BD0CED00E000E400E0FB
:1031E00080E100E002490143024A1160704700009B
:1031F0000000FA050CED00E070B502264A480068B0
:10320000447849480068007800F07F0000284AD1DF
:10321000092C03D100F0BCFF064665E0052C14D153
:1032200041480068C0787F280BDC3F480068807800
:1032300038B93D480068808818B93B480068807AF2
:1032400008B108256BE000264EE0032C14D1364867
:103250000068C07801280DD133480068808848B9DB
:1032600031480068407A00F0200018B100F0B4FF47
:10327000064639E0022637E0012C35D12A4800689D
:10328000C07801280DD128480068808848B92648B0
:103290000068407A00F0200018B100F015FE0646E4
:1032A00022E0022620E020480068007800F07F003D
:1032B000012805D10B2C17D101F002F8064613E0C6
:1032C00019480068007800F07F0002280BD1012C1B
:1032D00003D100F0F9FD064606E0032C04D100F00E
:1032E0008FFF064600E002264EB1E0B20F4A126898
:1032F000516988470646032E01D109250FE00EB11A
:1033000008250CE0062500210948006880B2801CD1
:10331000084A42F8101030200749088000BF0249CF
:1033200009680D7270BD0000FC0000200001002043
:10333000505C0040006000400E01002010B51148B4
:103340000068047A032C01D0052C05D1FEF75AFA47
:103350000C480068047A0EE0072C05D10A49096878
:10336000C8688047082406E0022C01D0042C01D153
:10337000082400E00824034909680C7200F078F87A
:1033800010BD0000FC00002000010020F0B5561C1C
:103390007510074E06EB41042B4605E034F8047B1C
:1033A00020F8017B401C5B1E002BF7D1F0BD000014
:1033B00000600040704700002948006829490968FA
:1033C000401A29490988884200D270472448006879
:1033D000244908602448807870B3012802D002286C
:1033E00037D10CE04FF47A70204908801F4908312A
:1033F0000880091F08801D490C3108802DE01B48FA
:10340000008880F40770194908801848083000883F
:1034100080F40770154908310880081F008880F47F
:103420000770091F088011480C30008880F407706D
:103430000E490C31088010E04FF4FA700B490880F7
:103440000A4908310880091F088008490C310880A2
:1034500003E001200449887000BF00BF00BFB4E74B
:1034600018000020540000205000002034040040C8
:1034700010B50D4890F82C10002000F095FB0B487B
:103480000068007A082805D1400209490880102008
:103490000849088005480068007A092801D1012000
:1034A00010BD0020FCE7000070010020FC0000209F
:1034B0000C0100200E01002010B5012001F02CFBB2
:1034C00001240B48046000200A490880084600884F
:1034D000074908600020091D08604FF4E0500549C5
:1034E00008800846008802490860002010BD0000DE
:1034F000405C0040060100202DE9F05F04464FF0DB
:103500007F594FF07C512046FCF776FE82462546D7
:103510002E460C48A0EB6606354629465046FCF779
:103520006BFE83462946FCF767FE80464946FCF75A
:1035300060FE07462946FCF75FFE05462846BDE8C3
:10354000F09F0000DF59375F29B1064AD269024374
:10355000044BDA6104E0034AD2698243014BDA6129
:10356000704700000010024029B1064A92690243E8
:10357000044B9A6104E0034A92698243014B9A61C9
:10358000704700000010024030B5002100220024E6
:1035900000232D4D6D6805F00C0121B1042905D0E3
:1035A000082923D105E0294D056022E0274D05605B
:1035B0001FE0254D6D6805F47012234D6D6805F40C
:1035C0008034022505EB92421CB9214D554305601C
:1035D0000BE01D4D6D6805F400351DB11C4D5543C4
:1035E000056002E0194D5543056002E0174D056086
:1035F00000BF00BF144D6D6805F0F0010909154DBD
:103600006B5C0568DD4045600F4D6D6805F4E06159
:10361000090A104D6B5C4568DD4085600A4D6D6898
:1036200005F46051C90A0B4D6B5C4568DD40C5600F
:10363000054D6D6805F44041890B074D6B5CC5680D
:10364000B5FBF3F5056130BD0010024000127A00B1
:1036500000093D00260000203600002001490860D6
:1036600070470000D80042422DE9F041A548FFF71D
:1036700021FD00287CD10025A3490880002405E015
:10368000A048005D2844C5B2601CC4B21F2CF7DB03
:103690009C48C07FA8426CD19A480078AA28FAD1E9
:1036A00098484078AF28F6D19648407995490979ED
:1036B00040EA01209549088008460088B0F57A7FE5
:1036C00002DA4FF47A7009E090480088B0F5FA6F9A
:1036D00002DD4FF4FA6001E08C4800888B490880D5
:1036E0008848C0798749897940EA0120874948801C
:1036F00008464088B0F57A7F02DA4FF47A7009E024
:1037000082484088B0F5FA6F02DD4FF4FA6001E0BC
:103710007E4840887D4948807A48407A7949097ACC
:1037200040EA01207949888008468088B0F57A7F90
:1037300002DA4FF47A7009E074488088B0F5FA6FC5
:1037400002DD4FF4FA6001E0704880886F4988809C
:103750006C48C07A6B49897A40EA01206B49C8807D
:103760000846C088B0F57A7F04DA4FF47A700BE02F
:10377000B5E0B3E06548C088B0F5FA6F02DD4FF4FC
:10378000FA6001E06148C0886049C8805D48407BBC
:103790005C49097B40EA01205C49088108460089B0
:1037A000B0F57A7F02DA4FF47A7009E05748008961
:1037B000B0F5FA6F02DD4FF4FA6001E0534800897A
:1037C000524908814F48C07B4E49897B40EA01201D
:1037D0004E49488108464089B0F57A7F02DA4FF4B5
:1037E0007A7009E049484089B0F5FA6F02DD4FF47C
:1037F000FA6001E045484089444948814148407C9D
:103800004049097C40EA0120404988810846808976
:10381000B0F57A7F02DA4FF47A7009E03B4880898C
:10382000B0F5FA6F02DD4FF4FA6001E037488089A5
:10383000364988813348C07C3249897C40EA01207E
:103840003249C8810846C089B0F57A7F02DA4FF460
:103850007A7009E02D48C089B0F57A6F02DD4FF427
:103860007A6001E02948C0892849C881284E294F3B
:10387000498840F2DC52501AFCF747FE8046314638
:10388000FCF7BAFC244908602049098840F2DC5260
:10389000501AFCF73AFE80463146FCF7ADFC1F4952
:1038A00008601A48C08840F21C71884207DD1C4934
:1038B00008683946FCF79AFC194908600CE013487F
:1038C000C08840F29C41884206DA154908681149CF
:1038D000FCF73AFC1249086001F0E6FF0FE00A48E5
:1038E0000088401C0849088008460088B0F5FA7F27
:1038F00005DD002008800B490870FFF72FFCBDE8AC
:10390000F081000035050020CE00002028020020B4
:103910000AD7233D9A99993ED4020020080300203B
:103920003C0300201C00002010B54FF480701249A9
:103930000860052211492A20FFF7D6FB002121202B
:10394000FFF7F4FB01212220FFF7F0FB01212520E6
:10395000FFF7ECFB20213120FFF7E8FB07212620B1
:10396000FFF7E4FB0F212020FFF7E0FB4FF480700E
:103970000149091F086010BD140C0140215A0008BC
:1039800070B50546072D01D02748057026480078F8
:10399000082841D2DFE800F0040A1016212E414227
:1039A00000F046F80620204908703BE000F040F89F
:1039B00004201D49087035E002201B49487003208F
:1039C00008702FE018484078401E17494870084694
:1039D000407808B90420087024E01448006884B2D4
:1039E00044F010041148046005200F4908700A20B3
:1039F000487017E00C484078401E0B494870084654
:103A0000407840B90948006884B224F0100407489F
:103A100004600620087005E000BF00BF06200249D0
:103A2000087000BF00BF70BD09020020405C00406C
:103A300010B50748006884B224F004040448046008
:103A4000FFF72AF84FF43F400149086010BD00001D
:103A5000405C004008B501210820FFF785FD4FF4C8
:103A600080511648FEF70BFA4FF40050ADF80000F5
:103A700010208DF8030003208DF8020069460F48DE
:103A8000FEF770F94FF40040ADF8000069460B48AE
:103A9000FEF768F94FF48040ADF8000004208DF87F
:103AA000030069460548FEF75DF94FF400500349ED
:103AB000143108608000091F086008BD000C014037
:103AC00010B501460020002226E04FF40053144CAC
:103AD000236001F0800323B14FF40043241F2360CF
:103AE00003E04FF400430E4C23604B06190E4306CF
:103AF000180E4FF400530A4C241F2360084B0C3B54
:103B00001B68C3F380330BB1431CD8B24FF400538E
:103B1000034C2360531CDAB2082AD6DB10BD000028
:103B2000140C0140704700004FF6F8710140014A43
:103B300011607047505C004030B501460E4B1A785A
:103B4000002011E003060D4C04EB9353D3F8003C26
:103B500048F68F742340C4B223430406074D05EB97
:103B60009454C4F8003C401C9042EBD341F08003D5
:103B7000034C236030BD00006C0100200050004069
:103B80004C5C004010B54A105300054A126892B2CE
:103B900002EBC002121D034C44F8123010BD0000AD
:103BA000505C00400060004010B502460F480068BD
:103BB00080B200EBC200801D0D4C04EB40033E2997
:103BC0000BDD481101F01F040CB9441EA0B24FF4E4
:103BD000004444EA80241C6007E0481001F001041E
:103BE0000CB1441CA0B284021C6010BD505C0040AB
:103BF0000060004010B50C4C04EB8003D3F8003C8F
:103C00004BF68F7403EA040201F480530BB182F483
:103C1000805201F400530BB182F40052024C04EBC9
:103C20008003C3F8002C10BD00500040094B03EB8B
:103C30008002D2F8002C4BF68F7302EA030181F464
:103C4000805181F40051034B03EB8002C2F8001C49
:103C5000704700000050004010B54A105200044B5D
:103C60001B689BB203EBC003024C44F8132010BD49
:103C7000505C004000600040044A126892B202EBBF
:103C8000C002921C024B43F812107047505C004077
:103C90000060004010B50C4C04EB8003D3F8003CEE
:103CA00048F6BF7403EA040201F010030BB182F07E
:103CB000100201F020030BB182F02002024C04EB51
:103CC0008003C3F8002C10BD00500040094B03EBEB
:103CD0008002D2F8002C48F6BF7302EA030181F09B
:103CE000100181F02001034B03EB8002C2F8001C9D
:103CF000704700000050004010B5074B03EB8002F6
:103D0000D2F8002C48F68F131A400A43024C04EBF9
:103D10008003C3F8002C10BD0050004010B500F027
:103D200001F810BD0CB500200190009033480068E8
:103D300040F480303149086000BF3048006800F42A
:103D4000003000900198401C0190009818B901982B
:103D5000B0F5A06FF1D12948006800F4003010B12F
:103D60000120009001E0002000900098012843D13C
:103D70002348006840F010002149086008460068A8
:103D800020F0030008600846006840F00200086068
:103D90001A48406819494860084640684860084623
:103DA000406840F4806048600846406820F47C1019
:103DB00048600846406840F4E810486008460068DB
:103DC00040F08070086000BF0C48006800F0007090
:103DD0000028F9D00948406820F0030007494860EE
:103DE0000846406840F00200486000BF0348406851
:103DF00000F00C000828F9D10CBD000000100240B2
:103E00000020024010B50020FFF728FC0121C80562
:103E1000FFF79AFB10BD000008B52848006880B283
:103E2000001D274931F8100080B201EB40000090DE
:103E300024480068007A09282FD00098007821498A
:103E4000096808700098401C0090009800781D498F
:103E5000096848700098401C00900098801C0090F1
:103E6000009931F8020B0091FDF7F4F81549096843
:103E700048800098801C0090009931F8020B009156
:103E8000FDF7E8F80F49096888800098801C0090C9
:103E9000009800880B490968C88001200949096811
:103EA000087208480068C08810B9FFF7A5F901E05A
:103EB000FDF706FDFFF7DCFA08BD0000505C00408E
:103EC00000600040FC0000202DE9F04750480068E9
:103ED000007800F07F08B8F1000F0AD14C48006864
:103EE000407A00F0DF004A49096848720020BDE8C6
:103EF000F087B8F1020F7DD145480068408818B9B5
:103F000043480068007908B10220F0E7DFF8049127
:103F10003F480068477927F080052C463C480068F8
:103F2000407900F0800038B13B4901EB8400D0F8C3
:103F3000000C00F0300606E0374901EB8400D0F8B1
:103F4000000C00F4405699F80000A84204D91EB1B4
:103F50002F480068807A08B90220C8E707F080007F
:103F600080B12D4901EB8400D0F8000C00F0300046
:103F7000102843D1E0B2FDF731FAE0B23021FFF76B
:103F800089FE3BE0244901EB8400D0F8000C00F4EA
:103F90004050B0F5805F31D1C4B9204A92F82C105E
:103FA000E0B2FFF701FE1C4A02EB8401D1F8001CCD
:103FB0004BF68F7201EA020080F4805080F40050CA
:103FC000154A02EB8401C1F8000C17E0E0B2FDF7DE
:103FD000EBF9114A02EB8401D1F8001C4BF68F7209
:103FE00001EA020080F4805080F400500A4A02EB9B
:103FF000840100E008E0C1F8000C00BF084909682E
:1040000048698047002072E700BF02206FE7000088
:10401000FC0000206C0100200050004070010020D6
:104020000801002010B504462CB901200649096892
:104030000882002010BD05490968086880470248C9
:1040400000680A30F6E70000FC00002008010020AC
:1040500010B5024606480068438A32B98888C01AFB
:10406000034C24682082002010BD08681844FBE738
:10407000FC00002010B504462CB90120064909684F
:104080000882002010BD05490968886880470248F9
:1040900000680C30F6E70000FC000020080100205A
:1040A00010B504462CB90220354909680882002061
:1040B00010BD00203349088031480068007800F0C6
:1040C0007F00E0B92E490968487A00F0200129B143
:1040D0002C49097841F002012A4A117000F0400190
:1040E00031B12849097801F0FE01264A117005E036
:1040F0002449097841F00101224A11703AE0204830
:104100000068007800F07F00012801D11D48CFE74A
:104110001B480068007800F07F00022828D1184A68
:104120001268517901F00F0001F080027AB1164B4C
:1041300003EB8002D2F8002C02F03002102A16D1D4
:10414000104A127842F001020E4B1A700FE00E4B2B
:1041500003EB8002D2F8002C02F44052B2F5805FEB
:1041600005D1084A127842F00102064B1A7001E0AC
:1041700000209DE70549096808698047014897E7DD
:10418000FC000020F4000020005000400801002046
:1041900010B50E480068C0780D494978884213DC94
:1041A0000A480068807878B908480068808858B95B
:1041B00006480068C0780549096888720549096899
:1041C00048688047002010BD0220FCE7FC0000206A
:1041D0006C0100200801002010B507480068407AF3
:1041E00040F0200004490968487204490968C86918
:1041F0008047002010BD0000FC00002008010020C6
:104200002DE9F0412A480068467926F080073C46AF
:1042100027480068407900F0800038B1254901EB5B
:104220008400D0F8000C00F0300506E0214901EBD5
:104230008400D0F8000C00F440551F480078A042DC
:1042400008D91B480068408820B91DB1184800688B
:10425000807A10B90220BDE8F08106F0800080B1BC
:10426000144A02EB8401D1F8001C48F6BF7201EA3F
:10427000020080F010000F4A02EB8401C1F8000C2C
:1042800010E00C4A02EB8401D1F8001C4BF68F724F
:1042900001EA020080F48050064A02EB8401C1F872
:1042A000000C00BF05490968886980470020D2E7F3
:1042B000FC000020005000406C010020080100209C
:1042C00010B5174B1B68D978154B1B685879154BDF
:1042D0001B689A699047044611480068807AE8B1E3
:1042E0003CB90F480068007918B90D48006880781B
:1042F00008B1022010BD8CB90B490968C868804715
:1043000007480068407906490968C872044800688F
:10431000C0780349096808730020EBE70220E9E749
:10432000FC000020000100200801002010B5084812
:10433000006884B244F0080405480460006884B250
:1043400044F0040402480460FDF726FC10BD0000A0
:10435000405C004002480068401C0149086070470A
:104360001800002010B51348006840F00100114902
:10437000086008464068104908400E4948600846F1
:1043800000680E4908400B4908600846006820F4A0
:10439000802008600846406820F4FE0048604FF422
:1043A0001F008860FFF7BAFC4FF000600449086006
:1043B00010BD0000001002400000FFF8FFFFF6FEF5
:1043C00008ED00E01FB50121C802FFF7CDF8192064
:1043D0008DF8000001208DF8010003208DF8020007
:1043E00001208DF803006846FEF7C4FE40F22B1052
:1043F000ADF8080040F2CF20ADF804000020ADF881
:104400000A00ADF8060001A9064800F095FA01225D
:104410001146044800F02AF90121024800F009F988
:104420001FBD0000002C014010B501210B4800F019
:104430000CF988B1FEF7ECFC094A0A490A48FDF775
:1044400021FDFFF711F90648FDF7C4FBFEF736FB27
:104450000121024800F0EAF810BD0000002C0140E4
:10446000A69B443B1C0200201002002000B589B02E
:1044700001210420FFF778F80F20ADF80400032095
:104480008DF8060018208DF8070001A92848FDF7CF
:1044900069FC01210846FFF757F840F2E730ADF814
:1044A0001C000820ADF818000020ADF81E00ADF883
:1044B0001A0006A94FF0804000F03EFA6020ADF8E7
:1044C00008000120ADF80A000020ADF80E00ADF89C
:1044D000100002A94FF0804000F0D2F80821C80671
:1044E00000F01AF902A94FF0804000F01FF90821EE
:1044F000C80600F06DF902A94FF0804000F076F98F
:104500000821C80600F0C2F902A94FF0804000F06F
:10451000C7F90821C80600F001FA0121880700F058
:1045200079F80121880700F084F809B000BD000087
:104530000008014000B589B001210420FFF714F8FC
:1045400001210820FFF710F8C020ADF80400032077
:104550008DF8060018208DF8070001A92A48FDF7FC
:1045600001FC0320ADF8040001A92848FDF7FAFB7F
:1045700001210220FEF7E8FF40F2E730ADF81C0011
:104580002320ADF818000020ADF81E00ADF81A0089
:1045900006A91F4800F0D0F96020ADF808000120FE
:1045A000ADF80A004FF47A70ADF80E000020ADF8B7
:1045B000100002A9164800F063F80821144800F022
:1045C000ABF802A9124800F0B1F80821104800F039
:1045D000FFF802A90E4800F009F908210C4800F084
:1045E00055F902A90A4800F05BF90821084800F0D3
:1045F00095F90121064800F00DF80121044800F06A
:1046000018F809B000BD000000080140000C01408E
:104610000004004021B1028842F08002028004E0E0
:1046200002884FF67F731A4002807047CA430282A5
:10463000704721B1028842F00102028004E0028842
:104640004FF6FE731A400280704730B502460020D4
:1046500000230024158A05EA0103958905EA01046F
:1046600013B10CB1012000E0002030BD1AB18389E4
:104670000B43838102E083898B4383817047000071
:1046800070B5002400220023058C4FF6FE763540DD
:104690000584028C8388048B4FF68F752C40B51EE1
:1046A0002C400D882C43751E2A400D892A434D88C5
:1046B0002A43144DA8420BD0134DA84208D0134DE5
:1046C000A84205D0124DA84202D0124DA84213D1E3
:1046D0004FF6F7752A404D892A434FF6FB752A405D
:1046E0008D882A434FF6FF652B404FF6FF552B4030
:1046F0008D892B43CD892B4383800483CD88858688
:10470000028470BD002C0140003401400040014093
:1047100000440140004801400A460021018B4FF649
:10472000F7731940114301837047000070B50024EE
:1047300000220023058C4FF6EF7635400584028C6D
:104740008388048B48F6FF752C404FF6FF452C40BC
:104750000D884FF6FF7606EA05252C434FF6DF75E8
:104760002A400D8906EA05152A434D8806EA0515F3
:104770002A43154DA84202D0144DA8421DD14FF630
:104780007F752A404D894FF6FF7606EA05152A43C4
:104790004FF6BF752A408D8806EA05152A434FF665
:1047A000FF352B404FF2FF752B408D8906EA8505BA
:1047B0002B43CD8906EA85052B4383800483CD886E
:1047C0000587028470BD0000002C014000340140C8
:1047D0000A460021018B4FF2FF7319404FF6FF7319
:1047E00003EA0223194301837047000070B50024D7
:1047F00000220023058C4FF6FF6635400584028CAD
:104800008388848B4FF68F752C404FF6FC752C40B7
:104810000D882C434FF6FF552A400D894FF6FF7641
:1048200006EA05252A434D8806EA05252A43154D43
:10483000A84202D0144DA8421DD14FF2FF752A4064
:104840004D894FF6FF7606EA05252A434FF6FF35D8
:104850002A408D8806EA05252A434EF6FF752B402F
:104860004DF6FF752B408D8906EA05152B43CD8942
:1048700006EA05152B4383808483CD8885870284CF
:1048800070BD0000002C0140003401400A460021A8
:10489000818B4FF6F77319401143818370470000F5
:1048A00070B5002200230024058C4EF6FF763540BB
:1048B0000584038C8488828B48F6FF752A404FF666
:1048C000FF452A400D884FF6FF7606EA05252A4364
:1048D0004DF6FF752B400D8906EA05352B434D88B3
:1048E00006EA05352B430B4DA84202D00A4DA842DB
:1048F00008D14BF6FF752C408D894FF6FF7606EAFE
:1049000085152C4384808283CD88A0F84050038491
:1049100070BD0000002C0140003401400A46002117
:10492000818B4FF2FF7319404FF6FF7303EA0223A6
:104930001943818370470000002202881D4B984272
:104940000ED01D4B98420BD0B0F1804F08D01B4BBE
:10495000984205D01A4B984202D01A4B984204D183
:104960004FF68F731A404B881A43174B984207D063
:10497000164B984204D04FF6FF431A40CB881A4397
:1049800002808B8883850B8803850A4B98420BD065
:10499000094B984208D00E4B984205D00D4B9842D7
:1049A00002D00D4B984201D10B7A038601238382FA
:1049B00070470000002C014000340140000400401A
:1049C00000080040000C00400010004000140040AF
:1049D00000400140004401400048014070B53C489F
:1049E00000883B48008840F22551084000286ED0DE
:1049F0003748001D008840B23649374A127888543B
:104A00003548007810B101281AD10AE0314890F9F0
:104A10000000563020B930480078401C2E490870FC
:104A200054E02C4890F90100513028B92A48007808
:104A3000401C2949087002E000202749087045E021
:104A4000244890F90300001D23490978884205DDB8
:104A500021480078401C2049087037E000250024D8
:104A600005E01C48005D284445B2601CC4B21A48E9
:104A700000788442F5DB1748174909784056A84268
:104A80001CD11448807815490871084645710020EA
:104A90008871002409E0114880791049095D0844B3
:104AA00040B20E498871601CC4B2062CF3DB0721AA
:104AB0000A4800F015F80748FBF7BEFF002006493A
:104AC000087004490870487000BF00BF00BF70BD87
:104AD000003801401C050020C6000020C70000204F
:104AE00070B505460E4600240DE000BF074800885B
:104AF00000F080000028F9D0285781B2034800F068
:104B000007F8601CC4B2B442EFDB70BD003801404E
:104B1000C1F30802828070477047000010B5044658
:104B200001210420FEF720FD3CB11048006880B24E
:104B300020F002000D49086016E00C48006880B2C1
:104B400040F00200094908600948006820F47F200D
:104B5000074908600846006840F44C300860891432
:104B60000348001FFDF789F910BD0000405C0040BC
:104B70000408014010B5FFF745F900F011F80020D6
:104B800006490870FFF7CAFF642000F081FD01208C
:104B9000FFF7C4FF00F022F810BD00003A0000202B
:104BA00010B50848084908600220096808720748DB
:104BB0000749086007480849086005490968086806
:104BC000804710BD64050020FC000020700100201B
:104BD00000010020A00100200801002008B51420D9
:104BE0008DF8000001208DF8010000208DF80200F2
:104BF00001208DF803006846FEF7BCFA08BD0000EE
:104C000010B537480068374908800846008800F426
:104C1000806035490988084030B14FF6FF3030498F
:104C200008603249486880472E48008800F40050E8
:104C30002D490988084018B14DF6FF7028490860D1
:104C40002848008800F4805027490988084030B17E
:104C50004EF6FF70224908600020FEF791FE2148C1
:104C6000008800F4006020490988084060B12048AD
:104C7000007810B1FFF75AFB02E00220FEF780FE39
:104C80004FF2FF70164908601648008800F4007063
:104C900015490988084040B14FF6FF501049086097
:104CA00014480078401C134908700E48008800F42E
:104CB00080700D490988084030B14FF6FF600849FF
:104CC00008600720FEF75CFE0648008800F40040FC
:104CD00005490988084008B1FCF7C2F910BD000079
:104CE000445C00402C0100200601002070010020DF
:104CF000080200202E01002010B5FFF781FF10BD33
:104D000000BFFEE770B5024600200AE0145C064BC7
:104D10001D781B785B1C044E3370044B5C55431CA0
:104D2000D8B28842F2DB70BD3D000020B003002005
:104D300010B56D4800786D490978884263DD6A488E
:104D400000786A490978401A3F281FDB002068492B
:104D500008703F206749087000240BE06348017821
:104D60000078401C614A10706348415C614A601CD5
:104D70001154C4B23F2CF1DB40224FF48C715D48DA
:104D800000F0BEF80220FEF7A1FFABE05848007823
:104D9000401C5749087008460078584909788842ED
:104DA000F3D10020524908704F4800784F490978E4
:104DB000401A50490870002415E04B4800784B49D0
:104DC0000978401AA04208DD4848007820444A4942
:104DD000095C484A601C115403E00021454A601CEC
:104DE0001154601CC4B23F2CE7DB3F4800783F49B8
:104DF000087040224FF48C713E4800F081F8022088
:104E0000FEF764FF6EE03848007838490978884238
:104E100068DA36480078C0F580703349097808446C
:104E20003F281FDB0020324908703F2031490870BD
:104E300000240BE02D4801780078401C2B4A1070AC
:104E40002D48415C2B4A601C1154C4B23F2CF1DB4D
:104E500040224FF48C71274800F052F80220FEF7F0
:104E600035FF3FE022480078401C21490870084681
:104E7000007822490978884234D100201C49087002
:104E80001A480078404218490978084419490870BE
:104E9000002418E015480078C0F5807012490978A0
:104EA0000844A04209DD114800782044C0B21249EC
:104EB000095C104A601C115403E000210D4A601C7B
:104EC0001154601CC4B23F2CE4DB0748007807494A
:104ED000087040224FF48C71064800F011F802204F
:104EE000FEF7F4FE10BD00003D0000203C00002055
:104EF0003E00002080050020B00300203B00002081
:104F0000F0B5144604F1010C4FEA6C07DFF824C039
:104F10000CEB41033D460AE00678401C90F800C0C7
:104F200046EA0C2223F8022B9B1C401C6D1E002D10
:104F3000F2D1F0BD00600040490050EAC12018BF26
:104F400004204A0D18BF40F0010040F2FF72B2EB9E
:104F5000515F08BF40F00200012808BF05207047DC
:104F60002DE9F0414F1E00EBC7010446D1E90001D5
:104F700015461E4637F006020DD02A463346FBF78B
:104F800052FA7F1E04EBC703D3E90023FBF7A4F911
:104F900037F00602F1D1022F25D0042F13D0062FAF
:104FA00018BFBDE8F0812A463346FBF73CFAD4E946
:104FB0000A23FBF791F92A463346FBF734FAD4E982
:104FC0000823FBF789F92A463346FBF72CFAD4E984
:104FD0000623FBF781F92A463346FBF724FAD4E986
:104FE0000423FBF779F92A463346FBF71CFAD4E988
:104FF0000223FBF771F92A463346FBF714FAD4E98A
:105000000023BDE8F041FBF767B90122FBF758BC6C
:10501000FBF762B90022134610461146FBF7E1BBCD
:10502000024A00201107FBF74BBC000001FDFFFF07
:1050300002E008C8121F08C1002AFAD17047704761
:10504000002001E001C1121F002AFBD170470000BF
:1050500001490860704700000C0200202DE9F04D66
:105060008D4F21F0004A86B005460C46BA452ADB32
:10507000AAEB070028430AD08848824501DC1AD1F0
:10508000CDB106B02846BDE8F04DFFF7BEBF844A5B
:10509000844B2846FBF7C7F907460E46824A834BE6
:1050A00028462146FBF7BFF906B03A463346BDE82D
:1050B000F04DFBF711B90120FFF7CAFF06B0BDE8BC
:1050C000F04DFFF7A7BF7A48824542DABAF1795F1F
:1050D0000BDA2846FFF730FF042808BFFFF7A0FFD0
:1050E000284606B02146BDE8F08D2A460B461046FC
:1050F000FBF799F9834602466E480E460B46062199
:105100007844FFF72DFF5A463346FBF78CF980466B
:1051100069488A465A46334604217844FFF720FFFF
:105120005A463346FBF77FF900223B46FBF7D4F89B
:1051300002460B4640465146FBF753FB2A462346A0
:10514000FBF771F906B02A462346BDE8F04DFBF7A0
:10515000C3B8284624F0004100223D463B46FBF7F9
:105160005FF94FF0FF32FBF7ABFB064602465348B0
:105170000F460B4606217844FFF7F2FE32463B46C7
:10518000FBF751F9CDE900014D4832463B46042179
:105190007844FFF7E5FE32463B46FBF744F9002230
:1051A0002B46FBF799F8834602913046394600F0CA
:1051B0000FFC804643480D46504517DCDDE90001F1
:1051C0005A46029BFBF70DFB42462B46FBF72BF999
:1051D00042462B46FBF780F80122FBF771FB304A71
:1051E000304BFBF71AF9304A304B4CE04FF0000AD5
:1051F00052460B464046FBF76FF8CDE90310524686
:105200002B4610461946FBF70EF932463B46FBF794
:1052100007F9DDE90332FBF7E4FA06460F46DDE95C
:1052200000015A46029BFBF7DCFA834600910122FB
:1052300030463946FBF744FB194A1A4BFBF7F0F8A6
:1052400006460F46012240462946FBF739FB5A46DF
:10525000009BFBF7E8F832463B46FBF7DEF80646D4
:105260000F46012250462946FBF72AFB0E4DDFF878
:1052700058802A464346FBF7D3F832463B46FBF7B5
:10528000CFF82A464346FBF7CBF8002CD8BF81F075
:10529000004106B0BDE8F08D0000F03F0000F07F57
:1052A000075C143326A6913C182D4454FB21F93F8A
:1052B0000000E03FC4090000DA0900004E090000C8
:1052C000640900003333EF3FFB21E93F2DE9F84F3C
:1052D00004460D4621F0004000917349814211DCE3
:1052E0007249884201DC06D12CB120462946BDE82E
:1052F000F84FFFF78ABE6E48002DCCBF6D496E494E
:10530000BDE8F88F6D49814211DD6D498142D8BFFA
:105310004FF0FF366DDD20462946FFF70DFE0428CD
:1053200008BFFFF77DFE20462946BDE8F88F654996
:10533000654F25F00045814233DD6449814219DD26
:10534000002632464FF0804320462946FAF7C4FF34
:1053500080468A46012220462946FBF7B1FA002200
:105360003B46FBF75AF842465346FBF73AFA0446E7
:105370000D463EE001260022BA463B46204629461D
:10538000FAF7AAFF80460F460022534620462946D8
:10539000FBF743F842463B46FBF723FA04460D462B
:1053A00027E04B4981421BDDDFF828A102260022BD
:1053B000534620462946FBF736F800223B46FAF7CB
:1053C0008BFF80460F460022534620462946FBF7B6
:1053D00024F842463B46FBF704FA04460D4608E033
:1053E000032622462B4600203B49FBF7FAF90446E8
:1053F0000D4622462B4610461946FBF714F88B46FD
:10540000824602460B46FBF70EF807460246334833
:1054100088460B4606217844FFF7A2FD52465B46BC
:10542000FBF701F882462E488B463A464346052153
:105430007844FFF795FD3A464346FAF7F4FF0246F3
:105440000B46002E504659460CDAFAF745FF224625
:105450002B46FAF7E8FF01B022462B46BDE8F04F95
:10546000FAF7DEBFFAF738FF22462B46FAF7DBFFE2
:105470001C4A7A4402EBC603D3E90023FAF7CDFFB6
:1054800022462B46FAF7C9FF174A7A4402EBC603B5
:10549000D3E90023FAF7C4FF009A002AB8BF81F0CD
:1054A0000041BDE8F88F0000000010440000F07FCC
:1054B000182D4454FB21F93FFB21F9BF0000DC3FCC
:1054C0000000203E0000F33F0000F03F0000E63FF8
:1054D000008003400000F83F0000F0BF66070000B6
:1054E00024070000C20600008A0600002DE9F04DE6
:1054F0009446CCF1000423F000464CEA0404524FD9
:1055000046EAD4749A46884621F00042BC4206D846
:10551000454240EA050442EAD474BC4204D9BDE8DD
:10552000F04D6246FFF774BDAAF14055A5F17F65C5
:1055300055EA0C040BD0022404EAAA74434DDFF8A8
:1055400010E144EAD87452EA000B04D00CE0BDE844
:10555000F04DFFF7BBBE002C14BF012CBDE8F08D51
:10556000022C30D0032C32D056EA0C0B0AD0BE42AB
:1055700020D1BA4209D126F0804622F0804233463B
:10558000114617E000291ADB25E0DFF8C8B0FB441C
:10559000002C04BFDBE90001BDE8F08D012C02BF47
:1055A000DBE9000181F00041BDE8F08D022C0AD05A
:1055B000032C0CD0BA4212D1B8F1000F0BDA2348F9
:1055C0002549BDE8F08D28462449BDE8F08D2846E0
:1055D0007146BDE8F08D1D482149BDE8F08D921B54
:1055E00012153C2AC4BF19481D490EDCBAF1000F40
:1055F000BEBF12F13C0F0020014606DB6246FBF7FE
:10560000F0F821F00041FFF761FE002C08BFBDE873
:10561000F08D012C04BF81F00041BDE8F08D114AEE
:10562000114B022C07D0FAF7F8FE2A46BDE8F04DE0
:105630000A4BFAF7F2BEFAF7F0FE2A46BDE8F04D43
:10564000064BFAF7EDBE00000000F07F182D445421
:10565000FB2109C01E060000FB21F9BFFB21094008
:10566000FB21F93F075C143326A6A13C00B585B0A9
:105670006846FDF789FF04490098B0FBF1F0034943
:10568000086005B000BD000040420F00140000207B
:1056900030B50446FCF7BAFF054600BFFCF7B6FF7D
:1056A000401B04EB4401C1EBC411B0EBC10FF5D3B7
:1056B00030BD00004FF07E50064908600020486071
:1056C0008860C86004490860486088600349486091
:1056D00008607047DC000020580500201C020020F4
:1056E0002DE9F04104460D4621692068FAF72CFDAA
:1056F000606061696068FAF727FD064631466068B8
:10570000FAF7ACFDE0602846A168FAF76FFD07469E
:10571000E168FAF771FD0646A168FAF715FDA06089
:105720004FF07E50E168FAF761FD06466168FAF7CE
:1057300063FD2060BDE8F081FFF798FF4FF4A060A3
:10574000FDF750FD174800684FF47A72B0FBF2F194
:10575000B1F1807F00D31DE021F07F40401E4FF06B
:10576000E022506150170F22002807DA13071D0EA0
:105770000D4B00F00F04241F1D5503E013071C0EF2
:105780000A4B1C5400BF00204FF0E022906107201C
:10579000106100BFFBF73AF903E0FBF73BFBFDF7B5
:1057A0000BFEFAE70000002018ED00E000E400E046
:1057B00010B5024600200EE0002352F82040E360BE
:1057C00052F82040A36052F82040A36252F82040D3
:1057D0006360431CD8B28842EEDB10BD2DE9F05F58
:1057E00004460E46616A2068FAF700FD0546314618
:1057F0002846FAF701FD8046E168FAF7A5FCE0606B
:10580000A1682846FAF7F2FC80463146FAF726FDF1
:105810000746A0693946FAF7EFFC8146E1686069FE
:10582000FAF7EAFC824620692946FAF7E5FC834646
:105830005146FAF789FC80464946FAF785FCA06292
:10584000A560BDE8F09F00000C480D4908610D49B6
:1058500008610D480D4908610D48094988610949E9
:1058600088610C48094988610B480C4908610C495A
:1058700008614FF082400B490861704700004040CA
:10588000380200206C0200200000C040A00200206E
:105890008FC2753E9A99993E00002041D4020020A3
:1058A000080300203C03002010B54348808840F2E4
:1058B0001A41884207DA4048C088B0F5966F02DA8C
:1058C000FF203E4908703D480078042834D006DCAB
:1058D000012809D0022811D0032867D122E01F280F
:1058E00036D0FF2862D151E03348808840F27E41B3
:1058F000884202DA0220314908705BE02E48808835
:10590000B0F5C86F0DDD2E480078401C2C4908709A
:1059100008460078052804DD002008700320274988
:10592000087047E02448808840F24C41884202DAFF
:105930000420224908703DE00120224908701F2000
:105940001E490870002020498870FFF7B3FE31E03F
:1059500019488088B0F57F7F0DDA1C4801880088DF
:10596000401C1A4A108040F6B83081420DDDFF20FD
:105970001249087009E01348007818B9FF200F4950
:10598000087002E000201149088013E002200E494F
:10599000887000200D49088064200B490880002091
:1059A0000849087001200549087003E0FF200349F9
:1059B000087000BF00BF10BD28020020D0000020EA
:1059C000D40000201C00002050000020D200002045
:1059D0002DE9F04106460F46FAF79CFF04000D46FC
:1059E00018BF0120284320F00040C0F17F6000F183
:1059F000E040C00F0ED0301C18BF0120384320F00B
:105A00000040C0F17F6000F1E040C00F04BF012002
:105A1000FFF71EFB20462946BDE8F081E1E2E3E402
:105A2000E5E1E2E3E4E50000DB0F4940E12E6542F9
:105A300035FA8E3CF6FF793D2E9E8B3AD80FC93F42
:105A40001201000200000040830401A000030102D3
:105A5000030109022900010100C03209040000020B
:105A60000300000009211001000122210007058226
:105A70000340000107050103400001058C0901A155
:105A800001090315002600FF7508954081020904ED
:105A900015002600FF750895409102C00403090413
:105AA00014035A0049004E00580044005F004800AB
:105AB0004900440012035A0049004E005F005100A3
:105AC0005500410044000000555555555555C53FFA
:105AD0007D6FEB0312D6D4BF5544880E55C1C93F24
